:020000040800F2
:10000000D80C00206D020008BD100008A1010008F6
:10001000591000081104000889260008000000009B
:10002000000000000000000000000000B501000812
:100030005F0D00080000000009020008C51200085A
:10004000870200088702000887020008870200086C
:100050008702000887020008630D0008130E0008DD
:10006000230E0008330E0008430E0008850B00081D
:10007000870200088702000887020008870200083C
:10008000910B000887020008870200088702000819
:10009000870200088702000887020008590E00083E
:1000A0004113000887020008870200088702000841
:1000B0008702000887020008870200089D0F0008D9
:1000C000910F0008870200088702000887020008D5
:1000D000870200085D1800088702000887020008F0
:1000E0007B0D0008870200088702000887020008CD
:1000F00087020008870200088702000887020008BC
:1001000087020008870200088702000887020008AB
:10011000870200088702000887020008870200089B
:10012000870200088702000887020008870200088B
:10013000870200088702000887020008870200087B
:10014000870200088702000887020008D51000080F
:10015000870200088702000887020008870200085B
:10016000870200088702000887020008870200084B
:10017000870200088702000887020008870200083B
:100180008702000887020008DFF810D000F002F9AB
:1001900000480047672E0008AFF30080D80C00200D
:1001A0001EF0040F0CBFEFF30880EFF3098002F09C
:1001B0004BBF00002A4B19680868B0E8F04F80F385
:1001C0000988BFF36F8F4FF0000080F311887047EC
:1001D0000000000006480068006880F3088862B6E6
:1001E00061B6BFF34F8FBFF36F8F00DF00BF00BF5B
:1001F00008ED00E0DFF80C00016841F470010160D7
:10020000704700BF88ED00E0EFF30980BFF36F8F08
:10021000134B1A681EF0100F08BF20ED108A20E95A
:10022000F04F106008B44FF0500080F31188BFF316
:100230004F8FBFF36F8F03F031F94FF0000080F361
:10024000118808BC19680868B0E8F04F1EF0100F5C
:1002500008BFB0EC108A80F30988BFF36F8F704736
:1002600000010020EFF3058070470000064880473A
:1002700006480047FEE7FEE7FEE7FEE7FEE7FEE78B
:10028000FEE7FEE7FEE7FEE7E51200088901000849
:100290002DE9F05F0546002092469B4688460646BB
:1002A000814640241BE0284641464746224600F04E
:1002B00061F853465A46C01A914110D31146184668
:1002C000224600F048F82D1A67EB01084F462246F7
:1002D0000120002100F03FF817EB00094E41201EDD
:1002E000A4F10104DFDC484631462A464346BDE816
:1002F000F09F10B5431A934209D28318881803E07F
:1003000010F8011D03F8011D521EF9D210BD40EA7C
:1003100001039B0703D009E008C9121F08C0042A83
:10032000FAD203E011F8013B00F8013B521EF9D26A
:1003300010BDD2B201E000F8012B491EFBD270477C
:100340000022F6E710B513460A4604461946FFF7A1
:10035000F0FF204610BD202A04DB203A00FA02F10B
:10036000002070479140C2F1200320FA03F31943A3
:1003700090407047202A04DB203A21FA02F0002145
:10038000704721FA02F3D040C2F1200291400843A5
:1003900019467047064C074D06E0E06840F001033F
:1003A00094E8070098471034AC42F6D3FFF7F0FE0C
:1003B000CC380008EC38000870B58C1810F8015BD8
:1003C00015F0070301D110F8013B2A1106D110F8EE
:1003D000012B03E010F8016B01F8016B5B1EF9D1F2
:1003E0002B0705D40023521E0DD401F8013BFAE778
:1003F00010F8013BCB1A921C03E013F8015B01F8E3
:10040000015B521EF9D5A142D8D3002070BD000077
:100410000021084602F0DCFD0021012002F0D8FD99
:100420000021022002F0D4FD0021032002F0D0FDC3
:100430000748016821F0020101604FF4007105488E
:1004400000F0A4FDBC2104A002F08AFFFEE700003A
:1004500004000020000402402E2E5C7372635C6472
:100460007269766572735C7372635C6E7669632E13
:100470006300000010B50A46110602F07F0306D59E
:1004800003EB830100EBC10101F58E7105E002EB86
:10049000820100EBC10101F55D7100248C700B70CD
:1004A000D2094A7001F07AFF002010BD70B50D46E8
:1004B00005F07F0404EB84012E0600EBC10102D598
:1004C00001F58E7101E001F55D710C70ED094D7063
:1004D0008A60CB7005B1CC80022B01D100220A7159
:1004E00001F02EFF002070BD10B501F07F0404EB79
:1004F000840100EBC10101F55D71CA604B6100230D
:100500008B614B700C70C378012B00D10A610A78A3
:100510001AB101F081FF002010BD01F087FEFAE75B
:10052000002261F30A1200690168114301607047FB
:1005300010B50A46110602F07F0306D503EB8301CE
:1005400000EBC10101F58E7105E002EB820100EBC9
:10055000C10101F55D7101248C700B70D2094A70E4
:1005600001F03AFF002010BD70B501F07F0404EBEC
:10057000840100EBC10101F58E7101254D700C70F5
:10058000CA600A6100228A614B61002C03D001F02D
:1005900043FF002070BD01F049FEFAE770B586B058
:1005A0000646304601F019FE01A800F0D1FD029D7B
:1005B000F068C16821F470540594C460304602F0BC
:1005C00001F80146002003290ED00120B070402020
:1005D000B0803E483E49284488420FD224F47050EF
:1005E00000F56050059066E0B0704FF40070B08088
:1005F00024F4705000F5105005905CE03548364901
:100600002844884205D224F4705000F550500590DB
:1006100051E0324832492844884205D224F47050CF
:1006200000F54050059046E02E482F492844884266
:1006300005D224F4705000F5305005903BE02B4873
:100640002B492844884205D224F4705000F52050EC
:10065000059030E0274828492844884205D224F4F0
:10066000705000F51050059025E024482449284496
:10067000884205D224F4705000F5005005901AE02D
:10068000204821492844884205D224F4705000F5BE
:10069000E05005900FE01D481D492844884205D2CE
:1006A00024F4705000F5C050059004E024F470501C
:1006B00000F5A0500590F1680598C8604FF400500F
:1006C000F168486106B0012070BD0000401E1BFFAC
:1006D00040420F0000DC0BFFE0C810002013FBFEBF
:1006E00020D61300003DE7FE006A180000D3CEFEBE
:1006F00040771B00C05BB3FEC091210000CA91FE91
:1007000040AC2700C01D6AFE40E13300803C36FE4D
:10071000E09C4100F8B505460024002000902846E2
:1007200001F079FF064652E0F0074ED0E1B22846CC
:1007300000F0CEF90090C0071CD0012101FA04F2AC
:100740002869436B93434363009105EB8400806900
:1007500081602148E1B20068426828469047E87805
:10076000012807D134B995F81101042802D128468F
:1007700001F0D0FD0098000705D50820009005EB9A
:100780008401896988600098C00605D51020009012
:1007900005EB8401896988600098400605D54020F2
:1007A000009005EB8401896988600098800705D571
:1007B0000220009005EB840189698860009800069A
:1007C00003D52146284600F091F9641C7608002ED6
:1007D000AAD10120F8BD0000E40000202DE9FC4171
:1007E0000546002400200190284601F01AFF064625
:1007F000274F47E0F00743D0E1B2284601F017FF4A
:100800000190C00726D00121019105EB8400426DC3
:100810009160E97801290DD1406D0069009004EBE9
:10082000840105EBC101C0F31200D1F87C23101A3A
:10083000C1F88C033868E1B2026828469047E8782E
:10084000012807D134B995F81101052802D12846AD
:1008500001F060FD0198800705D50220019005EBAD
:100860008401496D88600198000709D5386881685E
:10087000284688470820019005EB8401496D88606F
:10088000641C7608002EB5D10120BDE8FC81000073
:10089000E400002038B50446A07A002808D0D4F837
:1008A0000C01016821F0020121F0010100910160B9
:1008B0002069416821F001014160054800688169B3
:1008C000204688474FF00040E1684861012038BD6C
:1008D000E40000207CB5054610200190E86881699D
:1008E00021F010018161E868006A009000F00F01BA
:1008F00001EB810105EBC10404F55D740099C1F3BE
:100900004341072923D2DFE801F0222204222222D8
:10091000160047F6F071084219D0C0F30A163246A5
:100920002846E16801F08BFEE0683044E060A06991
:100930003044A0610BE0082205F2CC51284601F0BA
:100940007EFE0099A069C1F30A110844A061E8681D
:10095000816941F01001816101207CBD10B5044620
:10096000044920460968C96888470821E068416150
:10097000012010BDE40000201FB5044600200090B7
:1009800094F8120100901748006841692046884792
:100990002069806801904FF400610391E268516121
:1009A000A17AE1B1C0071AD094F81501012816D137
:1009B0009DF80000032812D1D4F80C01016841F021
:1009C0000101016003200290D4F80C01016841F09C
:1009D000030101600448016841F00601016004B0B0
:1009E000012010BDE400002010ED00E070B586B0DD
:1009F000044600250595049503950295009501266A
:100A000001962069416821F00101416000212046E2
:100A100001F0B6FD0020FF2206E004EB80018B69A7
:100A20009A60496D8A60401C61788142F5D82169DD
:100A30004FF0FF308861ADF81460ADF816602169A1
:100A40000598C86145F0080040F0010040F0020040
:100A50002169486145F0010040F0080040F00200C3
:100A6000216908612069016821F4FE610160204666
:100A700001F050FC4FF48050E16848610348006881
:100A800001692046884706B0012070BDE4000020BF
:100A900010B50446054920460968C96988474FF4DE
:100AA0008011E0684161012010BD0000E4000020D9
:100AB00010B50446054920460968096A88474FF47D
:100AC0000011E0684161012010BD0000E400002039
:100AD00002691369526BCA4002F0010243EAC21272
:100AE00000EB810080698068104070472DE9F84371
:100AF00006460F460020009007EB870006EBC00477
:100B000004F58E74D4E90501401AA168814200D22F
:100B10000846C01C4FEA900906EB8708D8F8180071
:100B20008069009021E0D51AA268AA4200D2154639
:100B3000E81C4FEA9009ABB2FAB23046E16801F026
:100B40008EFDE0682844E060A0692844A061D8F8E0
:100B50001810896900916169814206D120780121CC
:100B600081403069426B8A434263009880B24845B5
:100B700005D9D4E90523934201D2002AD3D101201B
:100B8000BDE8F883014802F029B800001C000020ED
:100B9000F8B52B4C2B4D4FF08046A068002807D1AC
:100BA0000021304600F00FFC0021284600F066F8D6
:100BB000254F2846394600F08FF868B33946284655
:100BC00000F046F8284600F065F858B1D4E9011065
:100BD00081421ADA01EB4100E16801441B4801F04F
:100BE00085FF16E0D4E90110814208DA01EB4100EB
:100BF000E16801441548603001F078FF09E01348CE
:100C000060216030FFF79CFB03E060210F48FFF795
:100C100097FB6068401C6060D4E90110801C814231
:100C20000DDB6946206802F0C0FC0021304600F070
:100C3000CAFB0021284600F021F80020A060F8BD82
:100C400088000020886002400088002048010020C1
:100C5000074A904201D2074801E005481038064A89
:100C60008B0001EA020101D5C160704781607047C5
:100C700010640240006002407D0F7D0F002904D007
:100C8000016841F0010101607047016821F0010134
:100C900001607047014600200968090300D5012062
:100CA0007047000002460020084B9A4201D2084AD1
:100CB00001E0064A103A8B0001D5526800E0126844
:100CC000044B1A400A4200D00120704710640240D1
:100CD000006002407D0F7D0F30B500240F4A904226
:100CE00001D20F4A01E00D4A103A0E4B194205D0CD
:100CF0001E2303EAD12503682B4002E0406900F07F
:100D00008003880001D5506800E01068064A104052
:100D1000084201D003B10124204630BD10640240D6
:100D2000006002403C0F3C0F7D0F7D0F0B0609D584
:100D300022B1436943F08003436103E0436923F038
:100D400080034361802905D001F01E011AB10268B9
:100D50000A430260704702688A4302607047704726
:100D6000704710B5012000F0B1F8FFF7F9FF10BD92
:100D70007047704770477047704710B54FF48064F4
:100D8000204600F0A9F8012804D1204600F09EF882
:100D9000FFF7EEFF4FF40064204600F09DF80128B5
:100DA00004D1204600F092F8FFF7E3FF4FF480549F
:100DB000204600F091F8012804D1204600F086F882
:100DC000FFF7D8FF4FF40054204600F085F80128C3
:100DD00004D1204600F07AF8FFF7CDFF4FF48044AD
:100DE000204600F079F8012804D1204600F06EF882
:100DF000FFF7C2FF4FF40044204600F06DF80128D1
:100E000004D1204600F062F800F001F810BD7047F0
:100E1000704710B5022000F059F8FFF7F9FF10BD38
:100E2000704710B5042000F051F8FFF7F9FF10BD2E
:100E3000704710B5082000F049F8FFF7F9FF10BD22
:100E4000704710B5102000F041F8FFF7F9FF10BD12
:100E5000704770477047704710B5202000F03CF88D
:100E6000012804D1202000F031F8FFF7F1FF4020E5
:100E700000F032F8012804D1402000F027F8FFF7F5
:100E8000E8FF802000F028F8012804D1802000F03D
:100E90001DF8FFF7DFFF4FF48074204600F01CF8C8
:100EA000012804D1204600F011F8FFF7D4FF4FF4D9
:100EB0000074204600F010F8012804D1204600F00C
:100EC00005F800F001F810BD704700000149086006
:100ED00070470000143C014001460020024A12689D
:100EE0000A4200D001207047143C01402DE9F04136
:100EF000002201274FF0030C07FA02F50B682B4084
:100F0000AB422CD1066853000CFA03F4A6430660EA
:100F10000E79D0F800809E4046EA080606600E79F9
:100F2000012E01D0022E12D18668A64386604E792A
:100F3000D0F808809E4046EA080686604668AE43C0
:100F4000466045688E799640B6B235434560C568BF
:100F5000A543C560CC799C40C3681C43C460521C47
:100F6000102AC9D3BDE8F08110B54B07DB0E9A40BB
:100F7000C90800EB8100016A0F249C40A143016273
:100F8000016A1143016210BD4183704701837047BC
:100F9000014801F04BBE00001C000020014801F098
:100FA00095BE00001C000020002904D0018841F4F7
:100FB000806101807047018821F480610180704761
:100FC000C94381827047002904D0818841F40061BF
:100FD00081807047818821F40061818070470029F9
:100FE00004D0818841F4805181807047818821F448
:100FF0008051818070470CB50246002000920A0F94
:10100000019221F07F41019A002A03D0009A143204
:10101000009203E0090C009A18320092009A1268BC
:101020000A4200D001200CBD002A03D082880A4366
:101030008280704782888A4382807047008AC0B26B
:101040007047002A02D041F0010101E001F0FE01E9
:1010500001827047018270470021084601F0B8FF05
:101060000021012001F0B4FF0021022001F0B0FFB7
:101070000021032001F0ACFF0748016821F00201C4
:1010800001604FF400710548FFF780FFA92104A01B
:1010900002F066F9FEE700000400002000040240B0
:1010A0002E2E5C7372635C647269766572735C7316
:1010B00072635C6E7669632E630000007047000007
:1010C0000249084302490860704700000000FA0521
:1010D0000CED00E0014800F0D5BD00000802002042
:1010E000054A002903D01168014311607047116857
:1010F000814311607047000030380240054A0029E2
:1011000003D0116801431160704711688143116079
:101110007047000040380240054A002903D011689A
:1011200001431160704711688143116070470000EE
:1011300020380240054A002903D01168014311609C
:1011400070471168814311607047000024380240E5
:1011500070B5244B196801F00C01234C00291ED0F6
:10116000661004291DD008291DD00460196801F0FB
:10117000F00109091D4A545C0168E14041601C68A6
:1011800004F4E054A40A145D21FA04F484601B689A
:1011900003F460435B0BD25CD140C16070BD04605E
:1011A000E4E70660E2E70F4A121F1168C1F38055B9
:1011B000116801F03F0135B1B6FBF1F11468C4F3D9
:1011C0008814614305E0B4FBF1F11468C4F388149A
:1011D00061431268C2F30142521C5200B1FBF2F1AA
:1011E0000160C3E7083802400024F400A800002092
:1011F0000CB50022019200922749086840F4803023
:1012000008604FF4A043086800F400300090019893
:10121000401C0190009810B901989842F3D10868D9
:10122000800302D50120009000E000920098012880
:1012300031D119484030026842F0805202601748AC
:10124000026842F4404202601348083002680260BB
:10125000026842F400420260026842F4A052026056
:10126000021F0F4B13600A6842F080720A600A681E
:101270009201FCD50B4A40F205711160016821F022
:1012800003010160016841F0020101600168C1F3DE
:1012900081010229FAD10CBD0038024000700040E3
:1012A00008544007003C02404FF0E021042804D0DD
:1012B000086920F0040008617047086940F00400E4
:1012C0000861704710B502F0A7F9012803D0BDE806
:1012D000104002F013B902480168491C016010BDBA
:1012E0008400002010B51248016841F470010160CB
:1012F0001048016841F0010101600E4A00210832E6
:10130000116002680C4B1A400260031D0B4A1A6000
:10131000026822F48022026006480C300160FFF768
:1013200067FF03494FF000608039086010BD00007E
:1013300088ED00E000380240FFFFF6FE1030002488
:10134000F8B500260096164D0421284600F027F92E
:10135000144CB8B12915284600F01AF9284600F0B7
:1013600015F9A0806188411AE180608000236A46F7
:10137000A11DA06802F0D8F80120207004212846A1
:1013800000F01EF80121284600F009F9002806D0D7
:101390002078607026700121284600F011F8F8BD11
:1013A0000040014010000020002904D0018841F0D5
:1013B000800101807047018821F080010180704721
:1013C000C94301827047002904D0018841F001011E
:1013D00001807047018821F0010101807047000001
:1013E00010B55D49884209D101210846FFF7A2FEE8
:1013F0000021BDE810400120FFF79CBEB0F1804FF6
:101400000CD05649884213D101210220FFF784FEF7
:101410000021BDE810400220FFF77EBE01210846F2
:10142000FFF77AFE0021BDE810400120FFF774BEEF
:101430004B49884209D101210420FFF76DFE0021AC
:10144000BDE810400420FFF767BE4649884209D135
:1014500001210820FFF760FE0021BDE810400820B0
:10146000FFF75ABE4049884209D101211020FFF7F9
:1014700053FE0021BDE810401020FFF74DBE3B4950
:10148000884209D101212020FFF746FE0021BDE856
:1014900010402020FFF740BE3549884209D1012184
:1014A0000220FFF747FE0021BDE810400220FFF7B1
:1014B00041BE304988420AD101210C042046FFF781
:1014C00039FE2046BDE810400021FFF733BE2A490F
:1014D00088420AD101214C042046FFF72BFE20460A
:1014E000BDE810400021FFF725BE244988420AD1FB
:1014F00001218C042046FFF71DFE2046BDE8104068
:101500000021FFF717BE1E49884209D10121402062
:10151000FFF702FE0021BDE810404020FFF7FCBDB0
:101520001849884209D101218020FFF7F5FD0021EB
:10153000BDE810408020FFF7EFBD134988420AD173
:10154000841501212046FFF7E7FD2046BDE8104045
:101550000021FFF7E1BD10BD000001400004004084
:1015600000080040000C0040001000400014004043
:101570000004014000400140004401400048014097
:1015800000180040001C004000200040806B7047A5
:1015900002460020128A0A4200D00120704702460B
:1015A0000020138A0B4092890A40002B02D0002AA7
:1015B00000D001207047000030B5028C22F00102FB
:1015C0000284058C8388028B22F0700222F00302D1
:1015D0000C88144325F002028D8915434A882A435A
:1015E0000D4DA84202D00D4DA8420FD122F00805A2
:1015F000CA892A4322F004058A882A4323F4807387
:1016000023F400730D8A1D434B8A2B43838004838C
:1016100089684163028430BD00000140000401403C
:10162000028B22F008020A430283704770B5028CD5
:1016300022F010020284028C8388048B24F4E0449C
:1016400024F440760D884FF6FF7404EA05253543EF
:1016500022F020028E8904EA061616434A8804EA1C
:1016600002123243114EB04202D0114EB04217D195
:1016700022F08002CE8904EA0616164326F04006C0
:101680008A8804EA0212324323F4806323F400635D
:101690000E8A04EA86061E434B8A04EA8303334318
:1016A0008380058389688163028470BD00000140E6
:1016B00000040140028B22F400624FF6FF7303EA3C
:1016C000012111430183704770B5028C22F48072AE
:1016D0000284028C8388848B24F0700424F0030439
:1016E0000D88254322F400728E894FF6FF7404EAB8
:1016F000062616434A8804EA02223243114EB042BB
:1017000002D0114EB04217D122F40066CA8904EA11
:101710000222324322F480668A8804EA022232439B
:1017200023F4805323F400530E8A04EA06161E4362
:101730004B8A04EA03133343838085838968C1633A
:10174000028470BD0000014000040140828B22F041
:1017500008020A438283704770B5028C22F48052DB
:101760000284058C8288838B23F4E04323F4407643
:101770000C884FF6FF7303EA0424344325F4005524
:101780008E8903EA06362E434D8803EA0535354334
:10179000084EB04202D0084EB04205D122F4804635
:1017A0000A8A03EA82123243828084838968016450
:1017B000058470BD0000014000040140828B22F4CA
:1017C00000624FF6FF7303EA0121114381837047E2
:1017D0004163704781637047C1637047016470471C
:1017E00030B50288164C174DA0420DD0A8420BD040
:1017F000B0F1804F08D0144B984205D0134B98425B
:1018000002D0134B984203D122F070034A881A4346
:10181000104B984206D0104B984203D022F44073EC
:101820000A891A4302804A68C2620A880285A04275
:1018300001D0A84201D1897A01860121818230BD7F
:101840000000014000040140000400400008004086
:10185000000C004000100040001400401CB50020A7
:1018600000900A4C40F22551204600F013F8002861
:101870000AD0204600F02EF80190054800236A4661
:1018800001A9006801F050FE1CBD000000100140DD
:10189000A000002070B5002440F66A12C1F3421384
:1018A00001F01F05012606FA05F2012B0CD0022BD0
:1018B0000DD0838A1340090A8E40008830400BB156
:1018C00000B10124204670BD83891340F3E7038AE9
:1018D0001340F0E78088C0F30800704710B5D0F8D7
:1018E000E42552689047002010BD10B5044694F8D6
:1018F0001201022806D0032804D02046BDE810407B
:1019000000F023B8488801280CD10020C4F8180141
:10191000D4F8E4058268204690472046BDE8104090
:1019200000F043B810BD10B5002413460A4600214C
:10193000FEF7DAFD204610BD10B5002413460A4616
:101940000021FEF711FE204610BD10B5044680218F
:101950002046FEF7EDFD00212046FEF7E9FD20467A
:10196000BDE8104000F0D6BC70B505460024052047
:1019700085F8110100231A4619462846FEF7B4FDE2
:10198000284600F0C7FC204670BD10B50024C0F802
:101990003C21C0F83821022380F8113113460A4651
:1019A0000021FEF7E1FD204610BD70B5054600247C
:1019B000042085F8110100231A4619462846FEF72F
:1019C000D3FD284600F0A6FC204670BD70B5054644
:1019D000002909D0D5F8E4054269002A56D095F8C7
:1019E0001201032850D051E005F58E7495F81101CD
:1019F000002602283ED1E169A068814215D9081A63
:101A0000E061E878012803D1D4E902100844E060DD
:101A1000A08BE16882B22846FFF78EFF00231A46AA
:101A200019462846FEF760FD24E0216AB1FBF0F27A
:101A300000FB12128AB981420FD3606A81420CD234
:101A4000002211462846FFF777FF666200231A46F8
:101A500019462846FEF748FD0CE0D5F8E405C168B4
:101A600029B195F81201032801D128468847284654
:101A7000FFF77AFF95F81601012807D1284600F0F4
:101A80009DF985F8166101E028469047002070BD59
:101A900070B50546002908D0D5F8E40582690AB377
:101AA00095F8120103282CD02DE005F55D7495F80A
:101AB0001101032827D1E169A068814213D9081ACE
:101AC000E061E878012803D1D4E902100844E0601D
:101AD000E169A068814200D2084682B22846E168E6
:101AE000FFF721FF0FE0D5F8E405016929B195F86A
:101AF0001201032801D1284688472846FFF755FFE1
:101B000001E028469047002070BD0000CA88012AE5
:101B100001D0FFF71ABF90F81221022A03D0032A3E
:101B200005D0FFF712BF01220349FFF72EBF0122A4
:101B300000F58871FFF729BFF400002038B504468E
:101B40000D46E88800906888010A08296ED2DFE80F
:101B500001F06D040C186D6D6368D4F8EC15A07875
:101B60000A6869469047014642E0D4F8E415A07837
:101B70008A6A69469047014602204870C4F8F01509
:101B800036E0C0B2062842D2DFE800F0030B131B98
:101B9000232BD4F8EC15A0784A6869469047014693
:101BA00026E0D4F8EC15A0788A686946904701468B
:101BB0001EE0D4F8EC15A078CA6869469047014643
:101BC00016E0D4F8EC15A0780A69694690470146FA
:101BD0000EE0D4F8EC15A0784A69694690470146B2
:101BE00006E0D4F8EC15A0788A696946904701466A
:101BF000BDF80000002809D0EA88002A06D08242F9
:101C000000D9024600922046FFF7BFFE38BD2946A4
:101C10002046FFF79AFE38BD29462046FFF795FE7D
:101C200038BD29462046FFF790FE38BD294620469C
:101C3000FFF78BFE38BD000090F81221022A03D076
:101C4000032A01D0FFF781BE06490122CA60D0F8FD
:101C500018210AB10322CA60024902220C31FFF79F
:101C600094BE0000EC00002010B5D0F8E415096A1D
:101C70008847002010BD10B5D0F8E415496A8847A0
:101C8000002010BD7CB506460024304600F0B5FCAF
:101C9000002849D0304600F0B9FC05460190E8B371
:101CA000280303D53046FEF799FD0446680303D5A3
:101CB0003046FEF72FFD0443A80703D5022000900D
:101CC000F1684861002D03DA3046FEF7E3FD044376
:101CD000280503D53046FEF74FFE0443280703D5F9
:101CE0003046FEF73BFE0443E80603D53046FEF7D8
:101CF000F1FD0443E80403D53046FEF777FE0443C4
:101D0000A80403D53046FEF749FC0443E80203D596
:101D10003046FEF7BDFE0443A80200E006E003D50E
:101D20003046FEF7C5FE044320467CBD00207CBD46
:101D300090F8CC250A7090F8CD254A7090F8CE2501
:101D400090F8CF3502EB03224A8090F8D02590F826
:101D5000D13502EB03228A8090F8D22590F8D33552
:101D600002EB032292B2CA80C0F84021012180F820
:101D70001111704710B50446002340221946204631
:101D8000FEF794FB0023402280212046FEF78EFBC5
:101D9000012084F81201D4F8E815A0784968884732
:101DA000002010BD10B50446D4F8E805006980474E
:101DB000032084F81201002010BD000002490968C8
:101DC0000069416000207047E800002010B5D0F89D
:101DD000E415C969002900D08847002010BD70B5FE
:101DE00004468888002801D1C88820B12046BDE873
:101DF0007040FFF7AABD887800F07F0594F81201C3
:101E000003280DD084F8145129462046FEF788FB9C
:101E10002046FFF7CAFD45B1022084F8120170BDCB
:101E20002046BDE87040FFF790BD012084F8120104
:101E300070BD10B50446D4F8E4050268204690470A
:101E4000D4F8E80580688047002010BD70B50446CE
:101E50000846284D81782970012905D90146204678
:101E6000BDE87040FFF771BD94F81221022A07D037
:101E7000032A18D001462046BDE87040FFF765BD33
:101E800061B184F81011032084F812012046FFF795
:101E9000D0FF2046BDE87040FFF787BD2046BDE873
:101EA0007040FFF782BD91B194F8100188421BD0B9
:101EB00001462046FFF712FD297884F810112046CC
:101EC000FFF7B7FF2046BDE87040FFF76EBD022068
:101ED00084F8120184F810112046FFF7FFFC204619
:101EE000BDE87040FFF761BD2046BDE87040FFF7D8
:101EF0005CBD0000EC00002038B504464888012293
:101F0000012810D0022841D1888810F0FF0F3DD160
:101F1000216949680091000A062829D2DFE800F00B
:101F2000280F14191E23C4F81821D4F8E405826878
:101F3000204690472046BDE83840FFF736BD21F0E7
:101F400070001030009017E021F0700020300090F9
:101F500012E021F07000303000900DE021F07000B0
:101F60004030009008E021F070005030009003E015
:101F700021F070001030009005480099016084F84D
:101F800016212046BDE83840FFF70FBD38BD0000E0
:101F9000E80000201CB5044669462046FFF7C8FE4D
:101FA0009DF8002012F01F010AD001290DD002294E
:101FB00010D002F080012046FEF7BAFA00201CBDC6
:101FC0006946204600F00BF8F8E76946204600F025
:101FD000C9F8F3E76946204600F026F8EEE710B5A9
:101FE00000244A780A2A1BD2DFE802F011171A14DB
:101FF0001A08051A0E0BFFF7A1FD13E0FFF7EFFE1D
:1020000010E0FFF723FF0DE0FFF780FD0AE0FFF788
:1020100013FE07E0FFF770FF04E0FFF766FC01E046
:10202000FFF793FC204610BD70B504460D46002610
:1020300029792878C0F34110012806D0687880B348
:1020400001282FD003285BD107E0D4F8E405294606
:10205000826820469047304670BD94F812010228ED
:1020600006D003280BD029462046FFF76EFC47E038
:1020700011B3802944D02046FEF75AFA40E0688820
:1020800028B921B1802902D02046FEF751FAD4F8B0
:10209000E40529468268204690472046FFF785FCE4
:1020A0002EE023E094F81201022806D003280BD07A
:1020B00029462046FFF749FC22E009B380291FD0BA
:1020C0002046FEF735FA1BE06888C8B951B180296F
:1020D00008D02046FEF7CEF9D4F8E40529468268F8
:1020E000204690472046FFF760FC09E094F8120173
:1020F000022807D003280DD029462046FFF725FCEB
:10210000304670BD0029FBD08029F9D02046FEF76B
:102110000FFAF5E7124A08064FF000054FF00103E9
:102120000CD501F07F0000EB800004EBC00090F8BC
:102130001E0108B153600BE0556009E001EB81001E
:1021400004EBC00090F8760308B1536000E05560DE
:1021500003490222091D2046FFF717FCD0E70000C3
:10216000EC00002070B504460D46002694F81201DC
:10217000032805D029462046FFF7E7FB304670BD0F
:10218000287901280CD8D4F8E4052946826820462D
:102190009047E8880028F1D12046FFF706FCEDE7DC
:1021A00029462046FFF7D1FBE8E710B500F5897016
:1021B0000178417004210170D0F8D604C0688047CE
:1021C000002010BD0021C0EB0010C0000722B0FBB2
:1021D000F2F0491C8142FCD970471EB50024002151
:1021E000009101698968029183691A680192C1F3BB
:1021F0004101002911D001290FD0022911D0032952
:102200000BD0D10AC9020191019919600069416896
:1022100041F48071416020461EBDD10AC90201917E
:10222000F2E7D10AC902C91C0191EDE7FCB500260D
:102230000022019200924A784B69012A16D00A784E
:1022400000EB8204626D1568019512690092EBB390
:102250008B684B6163F3060242F400220092636DC7
:10226000009A1A61C278012A41D046E08269176853
:102270000197146900943BB18D68AB420AD94D6156
:1022800065F30604009408E024F07F0343F4002380
:10229000009306E063F306040094009B43F40023DC
:1022A0000093009B1361C378012B05D10C780B6957
:1022B00000EB8404A469636147F0806343F000434A
:1022C00001931360C27812BB4A6900E008E0F2B1E2
:1022D0000A78012191400069426B0A43426316E08B
:1022E0000B7A63F3060242F400220092B7E70B7800
:1022F0000A6900EB83035B6D5A6145F0806242F02E
:1023000000420192097800EB8100406D0260304686
:10231000FCBD00000CB509490191426D1161C17805
:10232000012909D1426D00F2CC515161416D08681B
:102330004FF08020009008600CBD0000180008607D
:102340007CB500250022019200920C784E78012382
:10235000A34000EB8402012E1CD0526DADF8023078
:10236000136801931C040ED40C8964F30A03CC781F
:1023700064F39343897961F3995343F0805141F4B5
:102380000041019111600069C169009A1143C16166
:1023900028467CBD9269ADF80030E1E718B50346E8
:1023A0000020002200924C780A78012C03EB820274
:1023B0000AD0526D136823F400130093C9780329DF
:1023C00004D0022902D004E09269F3E743F080517F
:1023D00000910099116018BD08B502460020002345
:1023E00000934B780978012B02EB810106D0496DEF
:1023F0000A6842F4001200920A6008BD8A691168F6
:102400000091002902DA41F080410091009941F4E5
:1024100000110091116008BDFEB500250022029256
:1024200001924C780B784A694FF0010C00EB830362
:10243000012C1FD05C6D2668029624690194002A45
:1024400078D08F683A44521EB2FBF7F262F3DC4454
:102450000194C4F3C944019A7C4364F312020192CB
:10246000C2F312024A615B6D019A1A61C278012AB5
:1024700067D06CE09B691E6802961C6901946AB182
:1024800062F312048F683A44521EB2FBF7F262F311
:10249000DC440194CA78012A06D00AE0E20CD20496
:1024A0006CF3DC42019204E024F0C04202F10052DD
:1024B0000192019A1A61C278012A10D0CA78012AC1
:1024C00009D04A693AB10A780CFA02FC0269536BE6
:1024D00043EA0C035363CA78012A07D00FE00B7854
:1024E0000A6900EB83039B695A61F4E70269926809
:1024F0000092120AD20711D046F080520292029A3C
:1025000042F0806242F0004202920B7800EB8303BB
:102510009B691A60CA78012A05D02FE046F0005264
:102520000292ECE706E08A8A93B20A78C96800F062
:1025300096F823E08A6862F312046CF3DC44019499
:1025400091E70B780A6900EB83035B6D5A61CA78E7
:10255000012A08D14A791AB146F00052029202E0EB
:1025600046F080520292029A42F0806242F00042AB
:102570000292097800EB8100406D02602846FEBDA2
:1025800038B50025002200230093009B43F0200370
:102590000093009B61F38A1300930099C36819614B
:1025A000074BC1680C690094521C9A4202D8009CE7
:1025B000A006F7D40320FFF705FE284638BD00002B
:1025C000400D030008B5006980680090C0F3410029
:1025D000002807D0012807D0022807D0032803D0FD
:1025E000022008BD032008BD022008BD012008BD4F
:1025F000C068406900F00100704700B5FFF7F8FFC0
:10260000012801D0012000BD002000BDC068416943
:1026100080690840704700698169C069084080B2DC
:10262000704700698169C0690840000C704700EB81
:102630008101496D8968006940690840704710B59B
:10264000044608460021D21C9308D4F8D02003E0A9
:10265000146840F8044B491C9942F9D310BD30B5B9
:1026600005460020EC78002C0CD1DB1C9B0805EB08
:102670008202D2F8D02003E051F8045B1560641C9C
:102680009C42F9D330BD00000021084600F0A0FCB8
:102690000021012000F09CFC0021022000F098FCA9
:1026A0000021032000F094FC0748016821F002019A
:1026B00001604FF400710548FEF768FCCF2104A0CB
:1026C00000F04EFEFEE7000004000020000402407F
:1026D0002E2E5C7372635C647269766572735C73D0
:1026E00072635C6E7669632E630000000FB4054B65
:1026F00010B503A9044A029800F018F810BC5DF860
:1027000014FB0000492B0008A400002002E008C8C8
:10271000121F08C1002AFAD170477047002001E05B
:1027200001C1121F002AFBD1704700002DE9FF4FA5
:102730008DB09B460F460446002606E025280BD0A8
:102740005A460F999047641C761C20780028F5D1D2
:1027500011B03046BDE8F08F0025A8460122984907
:1027600000E0054314F8013F203B02FA03F0084261
:10277000F7D120782E2817D114F8010F45F0040561
:102780002A280ED06FF02F022078A0F130010929FD
:102790000AD808EB880102EB410100EB0108641C38
:1027A000F2E757F8048B641C20786C280DD004DC09
:1027B0004C2812D06A2811D104E074280DD07A2850
:1027C0000CD10AE045F4001507E0617845F4801566
:1027D000814202D1641C05F58015641C20786928AB
:1027E00044D008DC0028B3D0582867D063280FD025
:1027F000642808D13AE0702865D0732812D0752873
:102800005AD078285AD05A460F999047761CD5E06E
:1028100017F8040B8DF8000000208DF80100E94640
:10282000012003E057F8049B4FF0FF3069074FF099
:10283000000501D40AE06D1C45450DDA8542FADB3E
:1028400019F805100029F6D106E06D1C8542FCDB65
:1028500019F805100029F8D12E4404E019F8010BED
:102860005A460F9990476D1EF8D2A7E00A20002122
:10287000CDE90801C5F3025002280CD001CFC117E1
:10288000021E71F100020CDA0023D0EB030063EBAF
:1028900001012D2208E0FF1D27F00707F7E80201DC
:1028A000EEE72A0504D52B228DF8282001223CE0F2
:1028B000EA073AD02022F7E70A2000E010200021A2
:1028C000CDE9080107E01020002145F00405CDE91D
:1028D00008014FF00808C5F30250022810D001CFBC
:1028E00000214FF0000A2A0720D52278702A0DD047
:1028F000DDE908C38CF0100C5CEA030C0CD015E089
:10290000FF1D27F00707F7E80201EAE740228DF8EC
:1029100028204FF0010A0CE050EA010306D03023D2
:102920008DF828308DF82920022292462278582AE4
:1029300004D024A20DF120090B9209E026A2F9E7A8
:10294000DDE90823FDF7A4FC0B9B9B5C09F8013D26
:1029500050EA0102F4D1ADEB09002030089068077D
:1029600001D44FF001080899884503DD0898A8EBC9
:10297000000000E000208046002506E00AA85A4634
:10298000405D0F9990476D1C761C5545F6DB04E0C1
:1029900030205A460F999047761CB8F10001A8F1F3
:1029A0000108F5DC05E019F8010B5A460F9990472C
:1029B000761C0899481E08900029F4DC641CC4E6C3
:1029C0000928010030313233343536373839616205
:1029D00063646566000000003031323334353637C9
:1029E0003839414243444546000000001CB50121EE
:1029F0000220FEF775FB0220009001218DF80410E3
:102A000000218DF806108DF805000E4C6946204611
:102A1000FEF76CFA02212046FEF7B6FA44F60C15D2
:102A200040F2145602212046FEF7AEFA284600F086
:102A300041F802212046FEF7A9FA304600F03AF8A4
:102A4000F0E700000004024010B504460420FEF741
:102A50002BFC094844604FF47A714C4301210180FA
:102A60004FF0E021086940F0020008614C610869FC
:102A700040F00100086110BD9800002070B50446C8
:102A800000F0CAFD01280CD0094D2888844203D3E8
:102A9000B4FBF0F000F0E0FC2888B4FBF0F100FBA0
:102AA00011444FF47A706043BDE8704000F002B802
:102AB0009800002070B500214FF0E0256C690A4AAB
:102AC00052685043AB69AA699A42FCD003D2A3EB87
:102AD0000203194403E0A4EB0206334419441346ED
:102AE0008142F0D370BD00009800002010B5002294
:102AF0004B7893401B0601D5472300E0212340F883
:102B00002230521C082AF3DB00220B7893401B066C
:102B100001D5472300E0212302F1080440F82430C6
:102B2000521C082AF1DB00228B7893401B0601D54A
:102B3000472300E0212302F1100440F82430521C06
:102B4000082AF1DB10BD000003490A885206FCD5B3
:102B5000C2B28A80704700000010014008B5002111
:102B60000091006A694600F020FD0098002807D017
:102B700004494FF080500860BFF34F8FBFF36F8F51
:102B800008BD000004ED00E0026840F20121126877
:102B90001180006800224FF4C0610068FEF744BA5B
:102BA00010B5044600212068006CFEF767F8206825
:102BB000816C006CFEF74CF8206800210068FEF77D
:102BC00002FA206800210068FEF709FA2068002256
:102BD0001421006CBDE81040FEF7A8B810B50446FB
:102BE0002068816C006CFEF75DF840B12046FFF76D
:102BF000D7FF2046FFF7B2FF2046FFF7C5FF20684A
:102C0000C16C006CFEF74EF800280ED02068C16C35
:102C1000006CFEF71DF80120E0722046FFF79EFFD2
:102C20002046BDE81040FFF7AFBF10BD70B50446A9
:102C3000224D206829460068FEF7DDF9B0B1607AC0
:102C4000421E627205D3216840F2011009680880B3
:102C500007E00120E0722046FFF780FF2046FFF7E3
:102C600093FF206829460068FEF7AAF92068144DF2
:102C700000682946FEF7BFF920B1206829460068A0
:102C8000FEF79EF920680F4D00682946FEF7B3F95C
:102C900020B1206829460068FEF792F920680A4DA5
:102CA00000682946FEF7A7F9002806D020682946C3
:102CB0000068BDE87040FEF783B970BD00040010E5
:102CC00000010010000800100002001070B504465A
:102CD00023681868828A4FF6FF76D1071DD000203E
:102CE000A061A07A10B1608AB04208D0207A400674
:102CF000010E1868BDE870400022FEF7A2B901215C
:102D00001868FEF751F9207A4006010E206801226A
:102D10000068BDE87040FEF794B991074FF48065F4
:102D200041D5A17A11B1618AB1421AD0018B628A70
:102D3000B2420ED0217C41B1110AFEF78BF9206816
:102D4000A17C0068FEF786F902E0D1B2FEF782F9B5
:102D500066822068294601220068BDE87040FEF7BF
:102D600063B9616801291AD00121FEF738F920689A
:102D700000224FF4C0610068FEF756F92068012276
:102D80001421006CFDF7D2FF206801210068FEF7D6
:102D90001AF9BFF35F8F20680068008B70BD0021B7
:102DA000FEF702F9E3E7510728D5018B49070DD556
:102DB000A17A012906D02046FFF7D0FE2046FFF772
:102DC000E3FE15E040F20111018011E0FEF736F953
:102DD0000146A069421CA261626911546168A06940
:102DE000884205D12046FFF7B9FE2046FFF7CCFE0A
:102DF000206800680188C905FCD470BD510613D550
:102E0000FEF71CF90146A069421CA26162691154D7
:102E10006168A0698842F0D12068294600220068D4
:102E2000BDE87040FEF700B91106E6D5A17A012988
:102E300013D0A069411CA1616169095C1868FEF7A3
:102E400009F96168A0698842D7D120682946002223
:102E50000068BDE87040FEF7E7B82946BDE870405D
:102E60000022FEF7E1B800F085FAC821002000F04A
:102E7000AFF84FF49671012000F0AAF84FF4C87132
:102E8000022000F0A5F84FF4FA71032000F0A0F83A
:102E90004FF4966440F214554FF4AF6640F2DC579D
:102EA0002146002000F094F82946012000F090F817
:102EB0003146022000F08CF83946032000F088F8F3
:102EC0000220FFF7DBFDEBE72DE9F0418AB001219D
:102ED0000420FEF705F901210220FEF70FF9394F12
:102EE0003846FEF77DFADFF8E080022206214046F0
:102EF000FEF73AF8022207214046FEF735F8022293
:102F000008214046FEF730F8022209214046FEF72C
:102F10002BF84FF47070089002258DF824508DF82E
:102F2000255000248DF8264001268DF8276008A939
:102F30004046FDF7DBFF4DF6C0200690ADF814507B
:102F4000ADF81640ADF81C408DF81E4005A9384676
:102F5000FEF746FC6020ADF80000ADF80260029478
:102F6000ADF80C40E801ADF8100069463846FEF7B0
:102F700023FB69463846FEF759FB69463846FEF79B
:102F8000A3FB69463846FEF7E7FB08213846FEF703
:102F900047FB08213846FEF78DFB08213846FEF72F
:102FA000D5FB08213846FEF709FC01213846FEF71B
:102FB000FBF901213846FEF706FA044806700AB00C
:102FC000BDE8F081000400400008024080000020BD
:102FD00010B5184A1278002A2BD0174C70B101286E
:102FE00015D002281CD0032823D1084600F0AAF9E6
:102FF00001462046BDE81040FEF7F0BB084600F051
:10300000A1F901462046BDE81040FEF7E1BB0846A5
:1030100000F098F901462046BDE81040FEF7DABB03
:10302000084600F08FF901462046BDE81040FEF743
:10303000D3BB10BD80000020000400404FF440705E
:10304000FEF73EB8FFF740BF044600210846FFF7F1
:10305000BFFF00210120FFF7BBFF00210220FFF787
:10306000B7FF00210320FFF7B3FF2D48016821F0CF
:10307000020101604FF400712A48FDF787FF2568BF
:103080006668A768D4F80C80D4F81090D4F814A01F
:10309000D4F818B0E46924A0FFF728FB294628A03B
:1030A000FFF724FB314629A0FFF720FB39462AA071
:1030B000FFF71CFB41462BA0FFF718FB49462CA04D
:1030C000FFF714FB51462DA0FFF710FB59462EA029
:1030D000FFF70CFB21462FA0FFF708FB30480168E3
:1030E00030A0FFF703FB2E481038016830A0FFF72F
:1030F000FDFA2B480C38016830A0FFF7F7FA284892
:103100000838016830A0FFF7F1FA2548001D016872
:1031100030A0FFF7EBFA972131A000F021F9FEE78C
:1031200004000020000402405B4861726420666174
:10313000756C742068616E646C65725D0A000000D5
:103140005230203D2025780A000000005231203DF9
:103150002025780A000000005232203D2025780A00
:10316000000000005233203D2025780A00000000B6
:10317000523132203D2025780A0000004C52203D7B
:103180002025780A000000005043203D2025780AC1
:1031900000000000505352203D2025780A00000016
:1031A00038ED00E042464152203D2025780A0000DB
:1031B00043465352203D2025780A0000484653528A
:1031C000203D2025780A000044465352203D20250A
:1031D000780A000041465352203D2025780A00001D
:1031E0002E2E5C7372635C647269766572735C73B5
:1031F00072635C6E7669632E630000002DE9F04116
:1032000004460F46174EF5683068001D00F0BEF802
:1032100038B9306890F82C1001208840316981431A
:103220003161601C07D137B13168BDE8F041091D3B
:103230000D4800F0EBB82C4430684460AC4206D234
:103240003168B06B091DBDE8F04100F0C7B83168C6
:10325000706B091D00F0C2F8B06A844200D2B462FB
:10326000BDE8F08100010020C40800202DE9F041F4
:10327000044617460026A56B226C002A10D0C7B161
:10328000E068FDF736F8E168206C091AE160226811
:10329000914202D26168081AE060022F16D017E04E
:1032A0002068A8B9606800F021FA06460020606036
:1032B0000EE0A068FDF71DF8216CA0680844A0602E
:1032C0006168884204D32068A06001E005B16D1EEA
:1032D0006D1CA5633046BDE8F08173B50098846C21
:1032E0000026A06BE36B98420CD294F945500A4635
:1032F00069462046FFF7BAFF0646681C04D06D1CDD
:1033000084F8455030467CBD606A0028FAD004F14C
:10331000240000F023FA0028F4D00126F2E7000090
:103320000748416B0968002905D0416BC968C96825
:103330004968816270474FF0FF3181627047000039
:103340000001002046F6605148434FF47A71B0FB0B
:10335000F1F046F66051084480B27047FFF772BE44
:10336000034A024B13605060916070471F008A2F20
:103370003C01002010B5FFF761FEA820FFF764FBB9
:10338000FFF734FBBDE81040FFF7E8BF0169D0E963
:1033900001329A60D0E901235A604A68824201D121
:1033A00082684A60002202610868401E0860704717
:1033B000502080F31188BFF34F8FBFF36F8F02A0AF
:1033C000FFF794F9FEE700000A537461636B206F06
:1033D000766572666C6F77210A00000030B50C6864
:1033E000621C02D000F1080202E0026904E01A4601
:1033F00053681D68A542FAD953684B6099608A608A
:10340000516008610168491C016030BD42684A6032
:1034100093688B6093685960916008610168491CEA
:1034200001607047502080F31188BFF34F8FBFF3C6
:103430006F8F02480168491C01607047FC00002042
:1034400004490868401E0860002801D180F31188F3
:1034500070470000FC00002010B502460020002A42
:1034600007D000F013F800211046FFF7C7FE00F068
:10347000A9F9002807D104494FF080500860BFF334
:103480004F8FBFF36F8F10BD04ED00E00248016B5A
:10349000491C0163704700000001002010B5154C65
:1034A000206B002802D00120E06110BD0020E06107
:1034B000206821680068096B884204D82168206868
:1034C0003431FFF775FF2069B0FA80F0C0F11F00BA
:1034D000094900EB800001EB8000416849684160C8
:1034E00000F10802914201D1496841604068C0681A
:1034F000206010BD00010020FC07002010B5502006
:1035000080F31188BFF34F8FBFF36F8F00F092F8F5
:1035100018B104494FF080500860002080F31188F2
:1035200010BD000004ED00E02DE9F0410446154611
:1035300098465020EFF3118780F31188BFF34F8F27
:10354000BFF36F8FA06BE26B904207D3B8F1020F0D
:1035500004D0002087F31188BDE8F08194F945601C
:1035600042462046FFF782FE701C04D0761C84F889
:1035700045600120EEE7A06C012648B14146204697
:10358000FFF7ABFE0028F4D0002DF2D02E60F0E75C
:10359000606A0028EDD004F1240000F0DFF8002874
:1035A000E7D0002DE5D02E60E3E770B50C46502142
:1035B000EFF3118581F31188BFF34F8FBFF36F8F46
:1035C000826BC16B914222D990F94510521C8263E3
:1035D0004A1C04D0491C80F84510012018E0816C79
:1035E000012641B10021FFF778FE0028F5D0002C1C
:1035F000F3D02660F1E7416A0029EED0243000F0D4
:10360000ADF80028E9D0002CE7D02660E5E70020DF
:1036100085F3118870BD000005484169002903D079
:10362000006B18B1002070470120704702207047DE
:10363000000100202DE9F04100262A4F386B0028B8
:1036400008D0B869401CB861F86900B1012630465D
:10365000BDE8F081FD686D1CFD6045B9786BB96B04
:103660007963B863386A401C3862FFF759FEB86A5C
:10367000DFF8748085420DD3786B006838B1786BC1
:10368000C068C468606885420ED2B86202E04FF03C
:10369000FF30B8623868C06A00EB800058F820003C
:1036A0000128D1D90126CFE7201DFFF76FFEA06AC0
:1036B00018B104F11800FFF769FEE06A01213A69C8
:1036C00081401143396100EB800008EB8000211D2F
:1036D000FFF79CFEE06A3968C96A8842CCD30126AC
:1036E000CAE7000000010020FC07002070B5044676
:1036F0000020002C2CD0216D491E2165E36CE26A6C
:103700009A4225D0002923D1201DFFF73FFE114A00
:103710001149012350B9E06A00EB800552F82550A9
:1037200025B90D6903FA00F085430D61E06CE06294
:10373000C0F10600A061E06A0D6983402B430B6174
:1037400000EB800002EB8000211DFFF75FFE0120EF
:1037500070BD0000FC070020000100202DE9F041B1
:10376000C068C46804F118000746FFF70FFE134D48
:103770002A6B012662B139461148FFF747FEE06A1D
:103780002968C96A884216D90120EE61BDE8F08136
:10379000201DFFF7FBFDE06A2A6906FA00F11143DC
:1037A0002961074900EB8000A03901EB8000211D51
:1037B000FFF72CFEE3E70020E8E70000000100200F
:1037C0009C0800202DE9F04100240027FFF72AFE85
:1037D000264D286B401E2863286BE8BBA868D8B329
:1037E000DFF88C8001261EE0D8F80C00C46804F1D4
:1037F0001800FFF7CBFD201DFFF7C8FDE06A2A691E
:1038000006FA00F111432961194900EB8000A03943
:1038100001EB8000211DFFF7F9FDE06A2968C96A04
:10382000884200D3EE61D8F800000028DCD10CB14A
:10383000FFF776FDAC6944B1FFF7FCFE00B1EE6125
:10384000641E002CF8D10020A861E86920B101278E
:1038500008493807086000E003E0BFF34F8FBFF36B
:103860006F8FFFF7EDFD3846BDE8F08100010020C5
:103870009C08002004ED00E00054004000002000FF
:103880001F00000020000000801A06000200000057
:10389000000402404000000006000000020000009A
:1038A0000004024080000000070000000400000047
:1038B0000000200000000002106002400B00000029
:1038C000200000100800001000000000EC38000884
:1038D0000000002048010000B8030008303900084B
:1038E00048010020900B00001C270008011C1378E1
:1038F00038028C082D0102030404170607080991F9
:103900001A1408CD191C08951F08121D1B087504F0
:1039100013AB211B08A50813691C1B08770481221F
:10392000B80214201AAA0101404BC83868000000F0
:040000050800018965
:00000001FF
